:020000040800F2
:100000001805002005010008910400088904000873
:100010008D04000879010008A30C0008000000000E
:100020000000000000000000000000007106000851
:100030007D01000800000000590500088507000840
:100040001F0100081F0100081F0100081F01000810
:100050001F0100081F0100081F0100081F01000800
:100060001F0100081F0100081F0100081F010008F0
:100070001F0100081F0100081F0100081F010008E0
:100080001F0100081F0100081F0100081F010008D0
:100090001F0100081F0100081F0100081F010008C0
:1000A0001F0100081F0100081F0100081F010008B0
:1000B0001F0100081F0100081F0100081F010008A0
:1000C0001F0100081F0100081F0100081F01000890
:1000D0001F010008810A00081F0100081F01000815
:1000E000F10100081F0100081F010008DFF810D00F
:1000F00000F030F800480047AD110008AFF3008071
:10010000180500200648804706480047FEE7FEE73E
:10011000FEE7FEE7FEE7FEE7FEE7FEE7FEE7FEE7B7
:1001200089070008ED00000830B50B4601460020A5
:100130002022012409E021FA02F59D4205D303FAA9
:1001400002F5491B04FA02F52844151EA2F101022A
:10015000F1DC30BD064C074D06E0E06840F00103DD
:1001600094E8070098471034AC42F6D3FFF7C2FF7B
:1001700080120008A012000800BFFEE770470000D0
:100180001FB50121082000F0F9F94FF48060ADF8A7
:10019000040004208DF8070001A9144800F0A0F81D
:1001A0000121084600F0EAF90A21012000F078F860
:1001B0004FF48060029000208DF80C0008208DF82C
:1001C0000D0001208DF80E0002A800F01FF8282075
:1001D0008DF800000F208DF801008DF8020001203D
:1001E0008DF80300684600F055F91FBD000C014072
:1001F00010B500F063FF4FF4806000F001F810BD0F
:10020000014908607047000014040140002123499F
:100210008279002A3AD00A46126803689A430B464C
:100220001A600A1D126803689A430B1D1A6002794E
:1002300011440A6803681A430A60184A08321268AF
:1002400003689A43154B08331A601A1D1268036835
:100250009A43124B0C331A604279102A0ED11A1F9E
:10026000126803681A430D4B08331A601A1D12688E
:1002700003681A43094B0C331A600DE007494279B1
:1002800011440A6803681A430A6005E002791144C0
:100290000A6803689A430A6070470000000401403E
:1002A00030B500228B071C0F0F2303FA04F20B4B0F
:1002B0008C1053F824309343084C8D1044F82530AB
:1002C00023468C1053F824308C07240F00FA04F4D2
:1002D0002343024C8D1044F8253030BD0800014006
:1002E0002DE9F041024600250026002000230024CD
:1002F000002791F803C00CF00F0591F803C00CF033
:10030000100CBCF1000F03D091F802C04CEA0505B7
:1003100091F800C0BCF1000F31D0146800202BE030
:100320004FF0010C0CFA00F3B1F800C00CEA030620
:100330009E4220D183004FF00F0C0CFA03F7BC4310
:1003400005FA03FC4CEA040491F803C0BCF1280F41
:1003500006D14FF0010C0CFA00FCC2F814C00AE000
:1003600091F803C0BCF1480F05D14FF0010C0CFA15
:1003700000FCC2F810C0401C0828D1D31460B1F8AA
:1003800000C0BCF1FF0F34DD546800202EE000F106
:10039000080C4FF0010808FA0CF3B1F800C00CEAA1
:1003A00003069E4221D183004FF00F0C0CFA03F795
:1003B000BC4305FA03FC4CEA040491F803C0BCF109
:1003C000280F05D100F1080C08FA0CF8C2F81480C7
:1003D00091F803C0BCF1480F07D100F1080C4FF0B1
:1003E000010808FA0CF8C2F81080401C0828CED387
:1003F0005460BDE8F0810000F0B50A4600230024F7
:100400000021002500F00046B6F1004F02D11D4E3C
:10041000F16901E01B4E7168C0F3034583B200F43B
:100420004016B6F5401F08D121F07061154E766870
:1004300026F07066134F7E6012E000F48016B6F569
:10044000801F06D1032606FA05F4A14341F070612E
:1004500006E0460D360103FA06F6B14341F070613D
:1004600022B1460D360103FA06F6314300F000468C
:10047000B6F1004F02D1034EF16101E0014E71600F
:10048000F0BD00000000014000BFFEE700BFFEE736
:100490007047000070B5002100230F22C47804B318
:1004A000154C246804F4E064C4F5E064210AC1F149
:1004B0000403CA40447804FA03F1847814402143C9
:1004C00009010E4C0678A155047804F01F0501249B
:1004D000AC4005786D11AD0005F1E025C5F800418F
:1004E00009E0047804F01F050124AC40044D0678AF
:1004F000761145F8264070BD0CED00E000E400E008
:1005000080E100E002490143024A116070470000A7
:100510000000FA050CED00E010B5002408E00948E1
:1005200030F81420214608A000F0BEFB601CC4B2C5
:10053000082CF4DB4FF47A7000F09AFD05A000F06F
:10054000B3FB10BD0401002025643D2532642C203E
:10055000000000000D0A00007047000029B1064AA3
:10056000D2690243044BDA6104E0034AD269824350
:10057000014BDA61704700000010024029B1064AC1
:1005800092690243044B9A6104E0034A92698243F0
:10059000014B9A61704700000010024030B5002105
:1005A0000022002400232D4D6D6805F00C0121B1BF
:1005B000042905D0082923D105E0294D056022E052
:1005C000274D05601FE0254D6D6805F47012234D21
:1005D0006D6805F48034022505EB92421CB9214D6B
:1005E000554305600BE01D4D6D6805F400351DB1E8
:1005F0001C4D5543056002E0194D5543056002E06E
:10060000174D056000BF00BF144D6D6805F0F00187
:100610000909154D6B5C0568DD4045600F4D6D683F
:1006200005F4E061090A104D6B5C4568DD408560AA
:100630000A4D6D6805F46051C90A0B4D6B5C456845
:10064000DD40C560054D6D6805F44041890B074DDF
:100650006B5CC568B5FBF3F5056130BD0010024069
:1006600000127A0000093D00140000202400002040
:10067000704710B500F002F810BD00000CB5002066
:10068000019000903348006840F4803031490860A0
:1006900000BF3048006800F4003000900198401C12
:1006A0000190009818B90198B0F5A06FF1D12948D0
:1006B000006800F4003010B10120009001E000203B
:1006C00000900098012843D12348006840F01000B2
:1006D000214908600846006820F0030008600846C9
:1006E000006840F0020008601A48406819494860F4
:1006F0000846406848600846406840F480604860AA
:100700000846406820F47C1048600846406840F481
:10071000E81048600846006840F08070086000BF3C
:100720000C48006800F000700028F9D009484068C3
:1007300020F00300074948600846406840F0020086
:10074000486000BF0348406800F00C000828F9D159
:100750000CBD00000010024000200240042808D117
:100760004FF0E021096941F004014FF0E0221161EE
:1007700007E04FF0E021096921F004014FF0E02289
:10078000116170477047000010B51348006840F0D1
:1007900001001149086008464068104908400E49A8
:1007A0004860084600680E4908400B490860084642
:1007B000006820F4802008600846406820F4FE00AD
:1007C00048604FF41F008860FFF753FF4FF0006050
:1007D0000449086010BD0000001002400000FFF84E
:1007E000FFFFF6FE08ED00E030B589B005460C4687
:1007F00001210846FFF7B2FE01210820FFF7BEFEE7
:100800004FF40060ADF8200018208DF8230003207D
:100810008DF8220008A91E48FFF762FD01211D483E
:10082000FFF7EAFDADF81850ADF814400020ADF820
:100830001A00ADF8160005A94FF0804000F0CEF880
:100840007020ADF804000120ADF806000020ADF8DE
:100850000A000220ADF80C0001A9400700F070F872
:100860000121880700F05CF80821C80600F0A6F80E
:100870000121880700F03CF80121880700F044F8C6
:1008800063214FF0804000F0A6F809B030BD0000B1
:10089000000C0140000218007FB505460C460121FE
:1008A0000220FFF75BFEADF80850ADF804404FF4AE
:1008B0000070ADF80A000020ADF8060001A90B4851
:1008C00000F08CF81D208DF8000000208DF801004C
:1008D00001208DF802008DF803006846FFF7DAFD6D
:1008E0000021024800F010F87FBD00000004004025
:1008F00021B1028842F08002028004E002884FF6B3
:100900007F731A400280704721B1028842F00102D1
:10091000028004E002884FF6FE731A40028070479E
:1009200031B1B0F8442042F40042A0F8442005E080
:10093000B0F84420C2F30E02A0F844207047000033
:1009400070B5002200230024058C4EF6FF7635405A
:100950000584038C8488828B48F6FF752A404FF605
:10096000FF452A400D884FF6FF7606EA05252A4303
:100970004DF6FF752B400D8906EA05352B434D8852
:1009800006EA05352B430B4DA84202D00A4DA8427A
:1009900008D14BF6FF752C408D894FF6FF7606EA9D
:1009A00085152C4384808283CD88A0F84050038431
:1009B00070BD0000002C0140003401400A460021B7
:1009C000818B4FF2FF7319404FF6FF7303EA022346
:1009D000194381837047A0F84010704700220288B5
:1009E0001D4B98420ED01D4B98420BD0B0F1804F5A
:1009F00008D01B4B984205D01A4B984202D01A4B94
:100A0000984204D14FF68F731A404B881A43174B04
:100A1000984207D0164B984204D04FF6FF431A4035
:100A2000CB881A4302808B8883850B8803850A4B09
:100A300098420BD0094B984208D00E4B984205D0F3
:100A40000D4B984202D00D4B984201D10B7A038690
:100A50000123838270470000002C014000340140D4
:100A60000004004000080040000C0040001000405E
:100A70000014004000400140004401400048014093
:100A800010B540F225511D4800F04AF810B31B483C
:100A900000F002F9C4B21A48008800F40040C8B956
:100AA0001748008800F4804060B10A2C03D0002071
:100AB0001349088020E01248008840F400401049A3
:100AC000088019E00D2C06D10D48008840F48040C4
:100AD0000B49088010E00A480088C0F30D0009495E
:100AE0000C5407480088401C0549088008460088C7
:100AF000C72801DD0020088010BD0000003801403B
:100B0000300000203C00002021B1828942F40052D4
:100B1000828104E082894DF6FF731A40828170471A
:100B200070B50246002400230025002040F66A1616
:100B3000B14200D100BFC1F3421501F01F030126ED
:100B400006FA03F3012D02D19689334006E0022D07
:100B500002D1168A334001E0968A33400C120126F6
:100B600006FA04F41688344013B10CB1012000E0F9
:100B7000002070BDF0B503460024002600250020AB
:100B800040F66A17B94200D100BF1846C1F34214BB
:100B900001F01F06012707FA06F5012C01D10C30E0
:100BA00004E0022C01D1103000E014301AB10768C3
:100BB0002F43076002E00768AF430760F0BD000005
:100BC0002DE9F04786B005460E460024A24600BF38
:100BD000A1460027B08900B100BF2F462C8A4CF6F1
:100BE000FF700440F08804432C82AC894EF6F31069
:100BF0000440B08831890843718908430443AC81BB
:100C0000AC8A4FF6FF400440B0890443AC8201A88F
:100C1000FFF7C4FC1F48874202D1DDF810A001E0B5
:100C2000DDF80CA0A88900F4004040B10AEBCA002E
:100C300000EB0A1031684900B0FBF1F807E00AEB5D
:100C4000CA0000EB0A1031688900B0FBF1F864209B
:100C5000B8FBF0F004012009642101FB1089A88988
:100C600000F4004040B1322000EBC900B0FBF1F0CD
:100C700000F00700044308E0322000EB0910642173
:100C8000B0FBF1F000F00F0004432C8106B0BDE88A
:100C9000F08700000038014001468888C0F3080052
:100CA000704700BFFEE700000FB4054B10B503A965
:100CB000044A029800F018F810BC5DF814FB00001C
:100CC000911100082C00002002E008C8121F08C182
:100CD000002AFAD170477047002001E001C1121FBD
:100CE000002AFBD1704700002DE9FF4F8BB08846EA
:100CF0000546002606E025280BD0DDE90D129047B9
:100D00006D1C761C28780028F5D10FB03046BDE860
:100D1000F08F0024A146A2460122AE4900E0044320
:100D200015F8013F203B02FA03F00842F7D128787A
:100D30002A2810D06FF02F022878A0F1300109295D
:100D400015D809EB890102EB410144F0020400EBE4
:100D500001096D1CF0E758F8041B5FEA010903D58F
:100D600044F40054C9F1000944F002046D1C2878D1
:100D70002E2817D115F8010F44F004042A280ED0AC
:100D80006FF02F022878A0F1300109290AD80AEB68
:100D90008A0102EB410100EB010A6D1CF2E758F8F1
:100DA00004AB6D1C28786C280FD006DC4C2817D0BB
:100DB00068280DD06A2814D104E0742810D07A284D
:100DC0000FD10DE044F400140AE044F4801401E073
:100DD00044F440146978814202D104F580146D1CFA
:100DE0006D1C2878692865D006DC00288DD0632822
:100DF00027D0642806D15DE06E2808D073282AD059
:100E0000752877D0DDE90D129047761CE0E0C4F339
:100E10000250022809D003280DD0D8F80010042869
:100E20000DD00E6008F10408D2E0D8F80010F217D7
:100E3000C1E90062F6E7D8F800100E80F2E70E7004
:100E4000F0E718F8041B8DF8001000208DF8010061
:100E5000EB46012003E058F804BB4FF0FF30610778
:100E60004FF0000701D40AE07F1C57450DDA874296
:100E7000FADB1BF807100029F6D106E07F1C874239
:100E8000FCDB1BF807100029F8D1DDE90D23A9EBE5
:100E900007008146214600F0B1F83044C61904E04D
:100EA000DDE90D121BF8010B90477F1EF8D2214699
:100EB000484688E058F8040BC4F302514FF00A0B7F
:100EC000032900D100B2042900D140B2002802DA7F
:100ED00040422D2102E0210505D52B218DF824105B
:100EE000012104E006E0E10710D02021F6E708AF79
:100EF000089113E058F8040BC4F302514FF00A0BA9
:100F0000032900D180B2042900D1C0B20021EEE74C
:100F10005946FFF709F9303107F8011D0028F7D1CC
:100F2000ADEB070000F1200B600702D524F48034FC
:100F300001E04FF0010ADA4502DDAAEB0B0000E008
:100F40000020824600EB0B0108980144A9EB010048
:100F50000A90E00306D4DDE90D2321460A9800F04B
:100F60004DF806444FF0000908E009A911F80900FE
:100F7000DDE90D12904709F10109761C08998945B0
:100F8000F3DBE0030CD5DDE90D2321460A9800F0E0
:100F900035F8064404E0DDE90D1230209047761C58
:100FA000BAF10001AAF1010AF5DC05E0DDE90D1254
:100FB00017F8010B9047761CBBF10001ABF1010B58
:100FC000F4DC0A982146DDE90D2300F005F806441B
:100FD0006D1C97E6092801002DE9F0410446002523
:100FE0001E461746880404D405E039462020B04741
:100FF0006D1C641EF9D52846BDE8F0812DE9F0414D
:10100000044600251E469046C80301D5302700E05F
:101010002027880404D505E041463846B0476D1CBA
:10102000641EF9D52846BDE8F081000010B56FF0C8
:101030000400FFF793FB0A4800680A49B0FBF1F08F
:10104000094908700846007800EB4001C1EBC01068
:101050004FF6FF7101EAC0000449088010BD00008E
:101060000000002000127A00280000202A00002042
:101070000146114A12884A434FF0E0235A61002288
:101080009A611A46126942F001021A6100BF4FF0DC
:10109000E022106900F001021AB100F48032002A47
:1010A000F5D04FF0E022126922F001024FF0E02368
:1010B0001A6100229A6170472A00002010B52D485D
:1010C000007820B1012814D002284FD122E001215C
:1010D0002948FFF719FC0020274924310880012006
:1010E000244908702548006840F48060234908605E
:1010F0003DE02148243000882149088002201D4914
:1011000008701E48001F006840F480601B49091FDA
:1011100008602CE01848243000881A4908801848D4
:1011200000881949194A127821F8120017480078E6
:10113000401C1649087008460078092808D1104854
:10114000008840F68C21884202DD00200F4908709B
:101150000120084908700020074924310880074809
:10116000006840F480600549086000E000BF00BFEF
:1011700010BD000032000020000400400C040140BB
:101180003400002036000020040100203800002038
:1011900000BF054A128802F04002002AF9D0C2B20C
:1011A000014B1B1D1A807047003801404FF4A060AE
:1011B000FFF7A8F9FFF73AFF4FF4E13000F010F81D
:1011C00047214CF25030FFF767FBFEF7D9FF47216C
:1011D0004FF47A70FFF708FB01E0FFF79DF9FCE799
:1011E00010B586B00446012144F20400FFF7C6F9A9
:1011F0004FF40070ADF8140003208DF8160018208D
:101200008DF8170005A91C48FFF76AF84FF48060B5
:10121000ADF8140004208DF8170005A91648FFF753
:101220005FF825208DF8000003208DF801008DF86F
:10123000020001208DF803006846FFF72BF90194A6
:101240000020ADF80800ADF80A00ADF80C00ADF8CC
:1012500010000C20ADF80E0001A90848FFF7B0FC03
:10126000012240F225510548FFF784FC0121034883
:10127000FFF74AFC06B010BD0008014000380140ED
:10128000A0120008000000203C000000C80C00086C
:10129000DC1200083C000020DC040000D80C000830
:1012A00000A24A0400000000000000000102030444
:1012B00006070809000000000102030401020304FC
:1012C00006070809020406080000000000000000EC
:0C12D00000000000000000000000000012
:04000005080000ED02
:00000001FF
